{"abi":[{"type":"constructor","inputs":[],"stateMutability":"nonpayable"},{"type":"function","name":"allowance","inputs":[{"name":"owner","type":"address","internalType":"address"},{"name":"spender","type":"address","internalType":"address"}],"outputs":[{"name":"","type":"uint256","internalType":"uint256"}],"stateMutability":"view"},{"type":"function","name":"approve","inputs":[{"name":"spender","type":"address","internalType":"address"},{"name":"value","type":"uint256","internalType":"uint256"}],"outputs":[{"name":"","type":"bool","internalType":"bool"}],"stateMutability":"nonpayable"},{"type":"function","name":"balanceOf","inputs":[{"name":"account","type":"address","internalType":"address"}],"outputs":[{"name":"","type":"uint256","internalType":"uint256"}],"stateMutability":"view"},{"type":"function","name":"burn","inputs":[{"name":"amount","type":"uint256","internalType":"uint256"}],"outputs":[],"stateMutability":"nonpayable"},{"type":"function","name":"cap","inputs":[],"outputs":[{"name":"","type":"uint256","internalType":"uint256"}],"stateMutability":"view"},{"type":"function","name":"decimals","inputs":[],"outputs":[{"name":"","type":"uint8","internalType":"uint8"}],"stateMutability":"view"},{"type":"function","name":"gasLessTransfer","inputs":[{"name":"from","type":"address","internalType":"address"},{"name":"to","type":"address","internalType":"address"},{"name":"value","type":"uint256","internalType":"uint256"},{"name":"nonce","type":"uint64","internalType":"uint64"},{"name":"reward","type":"uint256","internalType":"uint256"},{"name":"signature","type":"bytes","internalType":"bytes"}],"outputs":[],"stateMutability":"nonpayable"},{"type":"function","name":"mint","inputs":[{"name":"to","type":"address","internalType":"address"},{"name":"amount","type":"uint256","internalType":"uint256"}],"outputs":[],"stateMutability":"nonpayable"},{"type":"function","name":"name","inputs":[],"outputs":[{"name":"","type":"string","internalType":"string"}],"stateMutability":"view"},{"type":"function","name":"owner","inputs":[],"outputs":[{"name":"","type":"address","internalType":"address"}],"stateMutability":"view"},{"type":"function","name":"renounceOwnership","inputs":[],"outputs":[],"stateMutability":"nonpayable"},{"type":"function","name":"symbol","inputs":[],"outputs":[{"name":"","type":"string","internalType":"string"}],"stateMutability":"view"},{"type":"function","name":"totalSupply","inputs":[],"outputs":[{"name":"","type":"uint256","internalType":"uint256"}],"stateMutability":"view"},{"type":"function","name":"transfer","inputs":[{"name":"to","type":"address","internalType":"address"},{"name":"value","type":"uint256","internalType":"uint256"}],"outputs":[{"name":"","type":"bool","internalType":"bool"}],"stateMutability":"nonpayable"},{"type":"function","name":"transferFrom","inputs":[{"name":"from","type":"address","internalType":"address"},{"name":"to","type":"address","internalType":"address"},{"name":"value","type":"uint256","internalType":"uint256"}],"outputs":[{"name":"","type":"bool","internalType":"bool"}],"stateMutability":"nonpayable"},{"type":"function","name":"transferOwnership","inputs":[{"name":"newOwner","type":"address","internalType":"address"}],"outputs":[],"stateMutability":"nonpayable"},{"type":"event","name":"Approval","inputs":[{"name":"owner","type":"address","indexed":true,"internalType":"address"},{"name":"spender","type":"address","indexed":true,"internalType":"address"},{"name":"value","type":"uint256","indexed":false,"internalType":"uint256"}],"anonymous":false},{"type":"event","name":"OwnershipTransferred","inputs":[{"name":"previousOwner","type":"address","indexed":true,"internalType":"address"},{"name":"newOwner","type":"address","indexed":true,"internalType":"address"}],"anonymous":false},{"type":"event","name":"Transfer","inputs":[{"name":"from","type":"address","indexed":true,"internalType":"address"},{"name":"to","type":"address","indexed":true,"internalType":"address"},{"name":"value","type":"uint256","indexed":false,"internalType":"uint256"}],"anonymous":false},{"type":"error","name":"ECDSAInvalidSignature","inputs":[]},{"type":"error","name":"ECDSAInvalidSignatureLength","inputs":[{"name":"length","type":"uint256","internalType":"uint256"}]},{"type":"error","name":"ECDSAInvalidSignatureS","inputs":[{"name":"s","type":"bytes32","internalType":"bytes32"}]},{"type":"error","name":"ERC20ExceededCap","inputs":[{"name":"increasedSupply","type":"uint256","internalType":"uint256"},{"name":"cap","type":"uint256","internalType":"uint256"}]},{"type":"error","name":"ERC20InsufficientAllowance","inputs":[{"name":"spender","type":"address","internalType":"address"},{"name":"allowance","type":"uint256","internalType":"uint256"},{"name":"needed","type":"uint256","internalType":"uint256"}]},{"type":"error","name":"ERC20InsufficientBalance","inputs":[{"name":"sender","type":"address","internalType":"address"},{"name":"balance","type":"uint256","internalType":"uint256"},{"name":"needed","type":"uint256","internalType":"uint256"}]},{"type":"error","name":"ERC20InvalidApprover","inputs":[{"name":"approver","type":"address","internalType":"address"}]},{"type":"error","name":"ERC20InvalidCap","inputs":[{"name":"cap","type":"uint256","internalType":"uint256"}]},{"type":"error","name":"ERC20InvalidReceiver","inputs":[{"name":"receiver","type":"address","internalType":"address"}]},{"type":"error","name":"ERC20InvalidSender","inputs":[{"name":"sender","type":"address","internalType":"address"}]},{"type":"error","name":"ERC20InvalidSpender","inputs":[{"name":"spender","type":"address","internalType":"address"}]},{"type":"error","name":"OwnableInvalidOwner","inputs":[{"name":"owner","type":"address","internalType":"address"}]},{"type":"error","name":"OwnableUnauthorizedAccount","inputs":[{"name":"account","type":"address","internalType":"address"}]},{"type":"error","name":"SignatureAlreadUsed","inputs":[]},{"type":"error","name":"WrongSignature","inputs":[]}],"bytecode":{"object":"0x60a06040523480156200001157600080fd5b50336b033b2e3c9fd0803ce80000006040518060400160405280600c81526020016b4b616b752046696e616e636560a01b815250604051806040016040528060048152602001634b4b464960e01b8152508160039081620000739190620001e7565b506004620000828282620001e7565b50505080600003620000af5760405163392e1e2760e01b8152600060048201526024015b60405180910390fd5b6080526001600160a01b038116620000de57604051631e4fbdf760e01b815260006004820152602401620000a6565b620000e981620000f0565b50620002b3565b600580546001600160a01b038381166001600160a01b0319831681179093556040519116919082907f8be0079c531659141344cd1fd0a4f28419497f9722a3daafe3b4186f6b6457e090600090a35050565b634e487b7160e01b600052604160045260246000fd5b600181811c908216806200016d57607f821691505b6020821081036200018e57634e487b7160e01b600052602260045260246000fd5b50919050565b601f821115620001e257600081815260208120601f850160051c81016020861015620001bd5750805b601f850160051c820191505b81811015620001de57828155600101620001c9565b5050505b505050565b81516001600160401b0381111562000203576200020362000142565b6200021b8162000214845462000158565b8462000194565b602080601f8311600181146200025357600084156200023a5750858301515b600019600386901b1c1916600185901b178555620001de565b600085815260208120601f198616915b82811015620002845788860151825594840194600190910190840162000263565b5085821015620002a35787850151600019600388901b60f8161c191681555b5050505050600190811b01905550565b608051610ea1620002d66000396000818161019101526109a00152610ea16000f3fe608060405234801561001057600080fd5b50600436106101005760003560e01c806342966c681161009757806395d89b411161006657806395d89b4114610227578063a9059cbb1461022f578063dd62ed3e14610242578063f2fde38b1461027b57600080fd5b806342966c68146101c857806370a08231146101db578063715018a6146102045780638da5cb5b1461020c57600080fd5b806323b872dd116100d357806323b872dd1461016d578063313ce56714610180578063355274ea1461018f57806340c10f19146101b557600080fd5b806306fdde0314610105578063095ea7b3146101235780630de04ed11461014657806318160ddd1461015b575b600080fd5b61010d61028e565b60405161011a9190610beb565b60405180910390f35b610136610131366004610c55565b610320565b604051901515815260200161011a565b610159610154366004610c7f565b61033a565b005b6002545b60405190815260200161011a565b61013661017b366004610d40565b6104eb565b6040516012815260200161011a565b7f000000000000000000000000000000000000000000000000000000000000000061015f565b6101596101c3366004610c55565b61050f565b6101596101d6366004610d7c565b610525565b61015f6101e9366004610d95565b6001600160a01b031660009081526020819052604090205490565b610159610532565b6005546040516001600160a01b03909116815260200161011a565b61010d610546565b61013661023d366004610c55565b610555565b61015f610250366004610db7565b6001600160a01b03918216600090815260016020908152604080832093909416825291909152205490565b610159610289366004610d95565b610563565b60606003805461029d90610dea565b80601f01602080910402602001604051908101604052809291908181526020018280546102c990610dea565b80156103165780601f106102eb57610100808354040283529160200191610316565b820191906000526020600020905b8154815290600101906020018083116102f957829003601f168201915b5050505050905090565b60003361032e8185856105a3565b60019150505b92915050565b6006828260405161034c929190610e24565b9081526040519081900360200190205460ff161561037d576040516355e2203960e11b815260040160405180910390fd5b600160068383604051610391929190610e24565b90815260405160209181900382018120805460ff1916931515939093179092556bffffffffffffffffffffffff1960608a811b8216928401929092529088901b166034820152604881018690526001600160c01b031960c086901b1660688201526070810184905260009061044c90609001604051602081830303815290604052805190602001207f19457468657265756d205369676e6564204d6573736167653a0a3332000000006000908152601c91909152603c902090565b905060006104908285858080601f0160208091040260200160405190810160405280939291908181526020018383808284376000920191909152506105b592505050565b9050886001600160a01b0316816001600160a01b0316146104c4576040516306ad488360e31b815260040160405180910390fd5b6104cf8189896105df565b84156104e0576104e08133876105df565b505050505050505050565b6000336104f985828561063e565b6105048585856105df565b506001949350505050565b6105176106bc565b61052182826106e9565b5050565b61052f338261071f565b50565b61053a6106bc565b6105446000610755565b565b60606004805461029d90610dea565b60003361032e8185856105df565b61056b6106bc565b6001600160a01b03811661059a57604051631e4fbdf760e01b8152600060048201526024015b60405180910390fd5b61052f81610755565b6105b083838360016107a7565b505050565b6000806000806105c5868661087c565b9250925092506105d582826108c9565b5090949350505050565b6001600160a01b03831661060957604051634b637e8f60e11b815260006004820152602401610591565b6001600160a01b0382166106335760405163ec442f0560e01b815260006004820152602401610591565b6105b0838383610982565b6001600160a01b0383811660009081526001602090815260408083209386168352929052205460001981146106b657818110156106a757604051637dc7a0d960e11b81526001600160a01b03841660048201526024810182905260448101839052606401610591565b6106b6848484840360006107a7565b50505050565b6005546001600160a01b031633146105445760405163118cdaa760e01b8152336004820152602401610591565b6001600160a01b0382166107135760405163ec442f0560e01b815260006004820152602401610591565b61052160008383610982565b6001600160a01b03821661074957604051634b637e8f60e11b815260006004820152602401610591565b61052182600083610982565b600580546001600160a01b038381166001600160a01b0319831681179093556040519116919082907f8be0079c531659141344cd1fd0a4f28419497f9722a3daafe3b4186f6b6457e090600090a35050565b6001600160a01b0384166107d15760405163e602df0560e01b815260006004820152602401610591565b6001600160a01b0383166107fb57604051634a1406b160e11b815260006004820152602401610591565b6001600160a01b03808516600090815260016020908152604080832093871683529290522082905580156106b657826001600160a01b0316846001600160a01b03167f8c5be1e5ebec7d5bd14f71427d1e84f3dd0314c0f7b2291e5b200ac8c7c3b9258460405161086e91815260200190565b60405180910390a350505050565b600080600083516041036108b65760208401516040850151606086015160001a6108a8888285856109f2565b9550955095505050506108c2565b50508151600091506002905b9250925092565b60008260038111156108dd576108dd610e34565b036108e6575050565b60018260038111156108fa576108fa610e34565b036109185760405163f645eedf60e01b815260040160405180910390fd5b600282600381111561092c5761092c610e34565b0361094d5760405163fce698f760e01b815260048101829052602401610591565b600382600381111561096157610961610e34565b03610521576040516335e2f38360e21b815260048101829052602401610591565b61098d838383610ac1565b6001600160a01b0383166105b0576002547f000000000000000000000000000000000000000000000000000000000000000090818111156109eb5760405163279e7e1560e21b81526004810182905260248101839052604401610591565b5050505050565b600080807f7fffffffffffffffffffffffffffffff5d576e7357a4501ddfe92f46681b20a0841115610a2d5750600091506003905082610ab7565b604080516000808252602082018084528a905260ff891692820192909252606081018790526080810186905260019060a0016020604051602081039080840390855afa158015610a81573d6000803e3d6000fd5b5050604051601f1901519150506001600160a01b038116610aad57506000925060019150829050610ab7565b9250600091508190505b9450945094915050565b6001600160a01b038316610aec578060026000828254610ae19190610e4a565b90915550610b5e9050565b6001600160a01b03831660009081526020819052604090205481811015610b3f5760405163391434e360e21b81526001600160a01b03851660048201526024810182905260448101839052606401610591565b6001600160a01b03841660009081526020819052604090209082900390555b6001600160a01b038216610b7a57600280548290039055610b99565b6001600160a01b03821660009081526020819052604090208054820190555b816001600160a01b0316836001600160a01b03167fddf252ad1be2c89b69c2b068fc378daa952ba7f163c4a11628f55a4df523b3ef83604051610bde91815260200190565b60405180910390a3505050565b600060208083528351808285015260005b81811015610c1857858101830151858201604001528201610bfc565b506000604082860101526040601f19601f8301168501019250505092915050565b80356001600160a01b0381168114610c5057600080fd5b919050565b60008060408385031215610c6857600080fd5b610c7183610c39565b946020939093013593505050565b600080600080600080600060c0888a031215610c9a57600080fd5b610ca388610c39565b9650610cb160208901610c39565b955060408801359450606088013567ffffffffffffffff8082168214610cd657600080fd5b9094506080890135935060a08901359080821115610cf357600080fd5b818a0191508a601f830112610d0757600080fd5b813581811115610d1657600080fd5b8b6020828501011115610d2857600080fd5b60208301945080935050505092959891949750929550565b600080600060608486031215610d5557600080fd5b610d5e84610c39565b9250610d6c60208501610c39565b9150604084013590509250925092565b600060208284031215610d8e57600080fd5b5035919050565b600060208284031215610da757600080fd5b610db082610c39565b9392505050565b60008060408385031215610dca57600080fd5b610dd383610c39565b9150610de160208401610c39565b90509250929050565b600181811c90821680610dfe57607f821691505b602082108103610e1e57634e487b7160e01b600052602260045260246000fd5b50919050565b8183823760009101908152919050565b634e487b7160e01b600052602160045260246000fd5b8082018082111561033457634e487b7160e01b600052601160045260246000fdfea26469706673582212209e8a7d83634c4aa2414ea2eed06e31a0134ab5fe9c246c8a5e43d8a0f74234aa64736f6c63430008140033","linkReferences":{}},"methodIdentifiers":{"allowance(address,address)":"dd62ed3e","approve(address,uint256)":"095ea7b3","balanceOf(address)":"70a08231","burn(uint256)":"42966c68","cap()":"355274ea","decimals()":"313ce567","gasLessTransfer(address,address,uint256,uint64,uint256,bytes)":"0de04ed1","mint(address,uint256)":"40c10f19","name()":"06fdde03","owner()":"8da5cb5b","renounceOwnership()":"715018a6","symbol()":"95d89b41","totalSupply()":"18160ddd","transfer(address,uint256)":"a9059cbb","transferFrom(address,address,uint256)":"23b872dd","transferOwnership(address)":"f2fde38b"},"id":46}