{"abi":[{"type":"constructor","inputs":[{"name":"_token","type":"address","internalType":"address"},{"name":"_merkleRoot","type":"bytes32","internalType":"bytes32"}],"stateMutability":"payable"},{"type":"function","name":"claimKAKU","inputs":[{"name":"_amount","type":"uint256","internalType":"uint256"},{"name":"_merkleProof","type":"bytes32[]","internalType":"bytes32[]"}],"outputs":[],"stateMutability":"nonpayable"},{"type":"function","name":"isClaimed","inputs":[{"name":"","type":"address","internalType":"address"}],"outputs":[{"name":"","type":"bool","internalType":"bool"}],"stateMutability":"view"},{"type":"function","name":"merkleRoot","inputs":[],"outputs":[{"name":"","type":"bytes32","internalType":"bytes32"}],"stateMutability":"view"},{"type":"function","name":"owner","inputs":[],"outputs":[{"name":"","type":"address","internalType":"address"}],"stateMutability":"view"},{"type":"function","name":"renounceOwnership","inputs":[],"outputs":[],"stateMutability":"nonpayable"},{"type":"function","name":"setToken","inputs":[{"name":"_token","type":"address","internalType":"address"}],"outputs":[],"stateMutability":"nonpayable"},{"type":"function","name":"token","inputs":[],"outputs":[{"name":"","type":"address","internalType":"address"}],"stateMutability":"view"},{"type":"function","name":"transferOwnership","inputs":[{"name":"newOwner","type":"address","internalType":"address"}],"outputs":[],"stateMutability":"nonpayable"},{"type":"function","name":"updateMerkleRoot","inputs":[{"name":"_merkleRoot","type":"bytes32","internalType":"bytes32"}],"outputs":[],"stateMutability":"nonpayable"},{"type":"function","name":"withdrawTokens","inputs":[],"outputs":[],"stateMutability":"nonpayable"},{"type":"event","name":"LogClaimedKAKU","inputs":[{"name":"sender","type":"address","indexed":true,"internalType":"address"},{"name":"_amount","type":"uint256","indexed":true,"internalType":"uint256"}],"anonymous":false},{"type":"event","name":"OwnershipTransferred","inputs":[{"name":"previousOwner","type":"address","indexed":true,"internalType":"address"},{"name":"newOwner","type":"address","indexed":true,"internalType":"address"}],"anonymous":false},{"type":"error","name":"AddressEmptyCode","inputs":[{"name":"target","type":"address","internalType":"address"}]},{"type":"error","name":"AddressInsufficientBalance","inputs":[{"name":"account","type":"address","internalType":"address"}]},{"type":"error","name":"AlreadyClaimed","inputs":[]},{"type":"error","name":"FailedInnerCall","inputs":[]},{"type":"error","name":"InvalidMarkleProof","inputs":[]},{"type":"error","name":"NoTokensToWithdraw","inputs":[]},{"type":"error","name":"OwnableInvalidOwner","inputs":[{"name":"owner","type":"address","internalType":"address"}]},{"type":"error","name":"OwnableUnauthorizedAccount","inputs":[{"name":"account","type":"address","internalType":"address"}]},{"type":"error","name":"SafeERC20FailedOperation","inputs":[{"name":"token","type":"address","internalType":"address"}]},{"type":"error","name":"ZeroAddress","inputs":[]}],"bytecode":{"object":"0x60806040526040516109a23803806109a2833981016040819052610022916100cb565b338061004857604051631e4fbdf760e01b81526000600482015260240160405180910390fd5b6100518161007b565b50600280546001600160a01b0319166001600160a01b039390931692909217909155600155610105565b600080546001600160a01b038381166001600160a01b0319831681178455604051919092169283917f8be0079c531659141344cd1fd0a4f28419497f9722a3daafe3b4186f6b6457e09190a35050565b600080604083850312156100de57600080fd5b82516001600160a01b03811681146100f557600080fd5b6020939093015192949293505050565b61088e806101146000396000f3fe608060405234801561001057600080fd5b506004361061009e5760003560e01c80638cc08025116100665780638cc08025146101025780638d8f2adb146101355780638da5cb5b1461013d578063f2fde38b14610162578063fc0c546a1461017557600080fd5b80631169ba84146100a3578063144fa6d7146100b85780632eb4a7ab146100cb5780634783f0ef146100e7578063715018a6146100fa575b600080fd5b6100b66100b13660046106f0565b610188565b005b6100b66100c636600461076f565b6102ac565b6100d460015481565b6040519081526020015b60405180910390f35b6100b66100f5366004610798565b6102fd565b6100b661030a565b61012561011036600461076f565b60036020526000908152604090205460ff1681565b60405190151581526020016100de565b6100b661031e565b6000546001600160a01b03165b6040516001600160a01b0390911681526020016100de565b6100b661017036600461076f565b6103e1565b60025461014a906001600160a01b031681565b3360009081526003602052604090205460ff16156101b957604051630c8d9eab60e31b815260040160405180910390fd5b60408051336020820152908101849052600090606001604051602081830303815290604052805190602001209050610228838380806020026020016040519081016040528093929190818152602001838360200280828437600092019190915250506001549150849050610421565b6102455760405163449cde2160e11b815260040160405180910390fd5b336000818152600360205260409020805460ff19166001179055600254610279916001600160a01b03919091169086610439565b604051849033907f8a7d930ef25b50382fff24538a551c71273156f9d938f27e6941000c421d729590600090a350505050565b6102b4610490565b6001600160a01b0381166102db5760405163d92e233d60e01b815260040160405180910390fd5b600280546001600160a01b0319166001600160a01b0392909216919091179055565b610305610490565b600155565b610312610490565b61031c60006104bd565b565b610326610490565b6002546040516370a0823160e01b81523060048201526000916001600160a01b0316906370a0823190602401602060405180830381865afa15801561036f573d6000803e3d6000fd5b505050506040513d601f19601f8201168201806040525081019061039391906107b1565b9050806000036103b657604051637dd28aa760e11b815260040160405180910390fd5b6103de6103cb6000546001600160a01b031690565b6002546001600160a01b03169083610439565b50565b6103e9610490565b6001600160a01b03811661041857604051631e4fbdf760e01b8152600060048201526024015b60405180910390fd5b6103de816104bd565b60008261042e858461050d565b1490505b9392505050565b604080516001600160a01b038416602482015260448082018490528251808303909101815260649091019091526020810180516001600160e01b031663a9059cbb60e01b17905261048b90849061055a565b505050565b6000546001600160a01b0316331461031c5760405163118cdaa760e01b815233600482015260240161040f565b600080546001600160a01b038381166001600160a01b0319831681178455604051919092169283917f8be0079c531659141344cd1fd0a4f28419497f9722a3daafe3b4186f6b6457e09190a35050565b600081815b84518110156105525761053e82868381518110610531576105316107ca565b60200260200101516105bd565b91508061054a816107e0565b915050610512565b509392505050565b600061056f6001600160a01b038416836105e9565b905080516000141580156105945750808060200190518101906105929190610807565b155b1561048b57604051635274afe760e01b81526001600160a01b038416600482015260240161040f565b60008183106105d9576000828152602084905260409020610432565b5060009182526020526040902090565b60606104328383600084600080856001600160a01b0316848660405161060f9190610829565b60006040518083038185875af1925050503d806000811461064c576040519150601f19603f3d011682016040523d82523d6000602084013e610651565b606091505b509150915061066186838361066b565b9695505050505050565b6060826106805761067b826106c7565b610432565b815115801561069757506001600160a01b0384163b155b156106c057604051639996b31560e01b81526001600160a01b038516600482015260240161040f565b5080610432565b8051156106d75780518082602001fd5b604051630a12f52160e11b815260040160405180910390fd5b60008060006040848603121561070557600080fd5b83359250602084013567ffffffffffffffff8082111561072457600080fd5b818601915086601f83011261073857600080fd5b81358181111561074757600080fd5b8760208260051b850101111561075c57600080fd5b6020830194508093505050509250925092565b60006020828403121561078157600080fd5b81356001600160a01b038116811461043257600080fd5b6000602082840312156107aa57600080fd5b5035919050565b6000602082840312156107c357600080fd5b5051919050565b634e487b7160e01b600052603260045260246000fd5b60006001820161080057634e487b7160e01b600052601160045260246000fd5b5060010190565b60006020828403121561081957600080fd5b8151801515811461043257600080fd5b6000825160005b8181101561084a5760208186018101518583015201610830565b50600092019182525091905056fea264697066735822122013fd480ba5f7cc464110551cd0696dcc1fed8c52149fb7378bb3b5e05b79148f64736f6c63430008140033","linkReferences":{}},"methodIdentifiers":{"claimKAKU(uint256,bytes32[])":"1169ba84","isClaimed(address)":"8cc08025","merkleRoot()":"2eb4a7ab","owner()":"8da5cb5b","renounceOwnership()":"715018a6","setToken(address)":"144fa6d7","token()":"fc0c546a","transferOwnership(address)":"f2fde38b","updateMerkleRoot(bytes32)":"4783f0ef","withdrawTokens()":"8d8f2adb"},"id":45}