{"abi":[{"type":"constructor","inputs":[{"name":"_token","type":"address","internalType":"address"},{"name":"_merkleRoot","type":"bytes32","internalType":"bytes32"}],"stateMutability":"payable"},{"type":"function","name":"claimKAKU","inputs":[{"name":"_amount","type":"uint256","internalType":"uint256"},{"name":"_merkleProof","type":"bytes32[]","internalType":"bytes32[]"}],"outputs":[],"stateMutability":"nonpayable"},{"type":"function","name":"isClaimed","inputs":[{"name":"","type":"address","internalType":"address"}],"outputs":[{"name":"","type":"bool","internalType":"bool"}],"stateMutability":"view"},{"type":"function","name":"merkleRoot","inputs":[],"outputs":[{"name":"","type":"bytes32","internalType":"bytes32"}],"stateMutability":"view"},{"type":"function","name":"owner","inputs":[],"outputs":[{"name":"","type":"address","internalType":"address"}],"stateMutability":"view"},{"type":"function","name":"renounceOwnership","inputs":[],"outputs":[],"stateMutability":"nonpayable"},{"type":"function","name":"setToken","inputs":[{"name":"_token","type":"address","internalType":"address"}],"outputs":[],"stateMutability":"nonpayable"},{"type":"function","name":"token","inputs":[],"outputs":[{"name":"","type":"address","internalType":"address"}],"stateMutability":"view"},{"type":"function","name":"transferOwnership","inputs":[{"name":"newOwner","type":"address","internalType":"address"}],"outputs":[],"stateMutability":"nonpayable"},{"type":"function","name":"updateMerkleRoot","inputs":[{"name":"_merkleRoot","type":"bytes32","internalType":"bytes32"}],"outputs":[],"stateMutability":"nonpayable"},{"type":"function","name":"withdrawTokens","inputs":[],"outputs":[],"stateMutability":"nonpayable"},{"type":"event","name":"LogClaimedKAKU","inputs":[{"name":"sender","type":"address","indexed":true,"internalType":"address"},{"name":"_amount","type":"uint256","indexed":true,"internalType":"uint256"}],"anonymous":false},{"type":"event","name":"OwnershipTransferred","inputs":[{"name":"previousOwner","type":"address","indexed":true,"internalType":"address"},{"name":"newOwner","type":"address","indexed":true,"internalType":"address"}],"anonymous":false},{"type":"error","name":"AddressEmptyCode","inputs":[{"name":"target","type":"address","internalType":"address"}]},{"type":"error","name":"AddressInsufficientBalance","inputs":[{"name":"account","type":"address","internalType":"address"}]},{"type":"error","name":"AlreadyClaimed","inputs":[]},{"type":"error","name":"FailedInnerCall","inputs":[]},{"type":"error","name":"InvalidMarkleProof","inputs":[]},{"type":"error","name":"NoTokensToWithdraw","inputs":[]},{"type":"error","name":"OwnableInvalidOwner","inputs":[{"name":"owner","type":"address","internalType":"address"}]},{"type":"error","name":"OwnableUnauthorizedAccount","inputs":[{"name":"account","type":"address","internalType":"address"}]},{"type":"error","name":"SafeERC20FailedOperation","inputs":[{"name":"token","type":"address","internalType":"address"}]},{"type":"error","name":"ZeroAddress","inputs":[]}],"bytecode":{"object":"0x6080604052604051620013533803806200135383398181016040528101906200002991906200026a565b33600073ffffffffffffffffffffffffffffffffffffffff168173ffffffffffffffffffffffffffffffffffffffff16036200009f5760006040517f1e4fbdf7000000000000000000000000000000000000000000000000000000008152600401620000969190620002c2565b60405180910390fd5b620000b0816200010160201b60201c565b5081600260006101000a81548173ffffffffffffffffffffffffffffffffffffffff021916908373ffffffffffffffffffffffffffffffffffffffff160217905550806001819055505050620002df565b60008060009054906101000a900473ffffffffffffffffffffffffffffffffffffffff169050816000806101000a81548173ffffffffffffffffffffffffffffffffffffffff021916908373ffffffffffffffffffffffffffffffffffffffff1602179055508173ffffffffffffffffffffffffffffffffffffffff168173ffffffffffffffffffffffffffffffffffffffff167f8be0079c531659141344cd1fd0a4f28419497f9722a3daafe3b4186f6b6457e060405160405180910390a35050565b600080fd5b600073ffffffffffffffffffffffffffffffffffffffff82169050919050565b6000620001f782620001ca565b9050919050565b6200020981620001ea565b81146200021557600080fd5b50565b6000815190506200022981620001fe565b92915050565b6000819050919050565b62000244816200022f565b81146200025057600080fd5b50565b600081519050620002648162000239565b92915050565b60008060408385031215620002845762000283620001c5565b5b6000620002948582860162000218565b9250506020620002a78582860162000253565b9150509250929050565b620002bc81620001ea565b82525050565b6000602082019050620002d96000830184620002b1565b92915050565b61106480620002ef6000396000f3fe608060405234801561001057600080fd5b506004361061009e5760003560e01c80638cc08025116100665780638cc080251461011f5780638d8f2adb1461014f5780638da5cb5b14610159578063f2fde38b14610177578063fc0c546a146101935761009e565b80631169ba84146100a3578063144fa6d7146100bf5780632eb4a7ab146100db5780634783f0ef146100f9578063715018a614610115575b600080fd5b6100bd60048036038101906100b89190610c55565b6101b1565b005b6100d960048036038101906100d49190610d13565b6103d5565b005b6100e3610487565b6040516100f09190610d59565b60405180910390f35b610113600480360381019061010e9190610da0565b61048d565b005b61011d61049f565b005b61013960048036038101906101349190610d13565b6104b3565b6040516101469190610de8565b60405180910390f35b6101576104d3565b005b61016161060c565b60405161016e9190610e12565b60405180910390f35b610191600480360381019061018c9190610d13565b610635565b005b61019b6106bb565b6040516101a89190610e12565b60405180910390f35b600360003373ffffffffffffffffffffffffffffffffffffffff1673ffffffffffffffffffffffffffffffffffffffff16815260200190815260200160002060009054906101000a900460ff1615610235576040517f646cf55800000000000000000000000000000000000000000000000000000000815260040160405180910390fd5b6000338460405160200161024a929190610e3c565b6040516020818303038152906040528051906020012090506102b0838380806020026020016040519081016040528093929190818152602001838360200280828437600081840152601f19601f82011690508083019250505050505050600154836106e1565b6102e6576040517f8939bc4200000000000000000000000000000000000000000000000000000000815260040160405180910390fd5b6001600360003373ffffffffffffffffffffffffffffffffffffffff1673ffffffffffffffffffffffffffffffffffffffff16815260200190815260200160002060006101000a81548160ff02191690831515021790555061038b3385600260009054906101000a900473ffffffffffffffffffffffffffffffffffffffff1673ffffffffffffffffffffffffffffffffffffffff166106f89092919063ffffffff16565b833373ffffffffffffffffffffffffffffffffffffffff167f8a7d930ef25b50382fff24538a551c71273156f9d938f27e6941000c421d729560405160405180910390a350505050565b6103dd610777565b600073ffffffffffffffffffffffffffffffffffffffff168173ffffffffffffffffffffffffffffffffffffffff1603610443576040517fd92e233d00000000000000000000000000000000000000000000000000000000815260040160405180910390fd5b80600260006101000a81548173ffffffffffffffffffffffffffffffffffffffff021916908373ffffffffffffffffffffffffffffffffffffffff16021790555050565b60015481565b610495610777565b8060018190555050565b6104a7610777565b6104b160006107fe565b565b60036020528060005260406000206000915054906101000a900460ff1681565b6104db610777565b6000600260009054906101000a900473ffffffffffffffffffffffffffffffffffffffff1673ffffffffffffffffffffffffffffffffffffffff166370a08231306040518263ffffffff1660e01b81526004016105389190610e12565b602060405180830381865afa158015610555573d6000803e3d6000fd5b505050506040513d601f19601f820116820180604052508101906105799190610e7a565b9050600081036105b5576040517ffba5154e00000000000000000000000000000000000000000000000000000000815260040160405180910390fd5b6106096105c061060c565b82600260009054906101000a900473ffffffffffffffffffffffffffffffffffffffff1673ffffffffffffffffffffffffffffffffffffffff166106f89092919063ffffffff16565b50565b60008060009054906101000a900473ffffffffffffffffffffffffffffffffffffffff16905090565b61063d610777565b600073ffffffffffffffffffffffffffffffffffffffff168173ffffffffffffffffffffffffffffffffffffffff16036106af5760006040517f1e4fbdf70000000000000000000000000000000000000000000000000000000081526004016106a69190610e12565b60405180910390fd5b6106b8816107fe565b50565b600260009054906101000a900473ffffffffffffffffffffffffffffffffffffffff1681565b6000826106ee85846108c2565b1490509392505050565b610772838473ffffffffffffffffffffffffffffffffffffffff1663a9059cbb858560405160240161072b929190610e3c565b604051602081830303815290604052915060e01b6020820180517bffffffffffffffffffffffffffffffffffffffffffffffffffffffff8381831617835250505050610918565b505050565b61077f6109af565b73ffffffffffffffffffffffffffffffffffffffff1661079d61060c565b73ffffffffffffffffffffffffffffffffffffffff16146107fc576107c06109af565b6040517f118cdaa70000000000000000000000000000000000000000000000000000000081526004016107f39190610e12565b60405180910390fd5b565b60008060009054906101000a900473ffffffffffffffffffffffffffffffffffffffff169050816000806101000a81548173ffffffffffffffffffffffffffffffffffffffff021916908373ffffffffffffffffffffffffffffffffffffffff1602179055508173ffffffffffffffffffffffffffffffffffffffff168173ffffffffffffffffffffffffffffffffffffffff167f8be0079c531659141344cd1fd0a4f28419497f9722a3daafe3b4186f6b6457e060405160405180910390a35050565b60008082905060005b845181101561090d576108f8828683815181106108eb576108ea610ea7565b5b60200260200101516109b7565b9150808061090590610f05565b9150506108cb565b508091505092915050565b6000610943828473ffffffffffffffffffffffffffffffffffffffff166109e290919063ffffffff16565b905060008151141580156109685750808060200190518101906109669190610f79565b155b156109aa57826040517f5274afe70000000000000000000000000000000000000000000000000000000081526004016109a19190610e12565b60405180910390fd5b505050565b600033905090565b60008183106109cf576109ca82846109f8565b6109da565b6109d983836109f8565b5b905092915050565b60606109f083836000610a0f565b905092915050565b600082600052816020526040600020905092915050565b606081471015610a5657306040517fcd786059000000000000000000000000000000000000000000000000000000008152600401610a4d9190610e12565b60405180910390fd5b6000808573ffffffffffffffffffffffffffffffffffffffff168486604051610a7f9190611017565b60006040518083038185875af1925050503d8060008114610abc576040519150601f19603f3d011682016040523d82523d6000602084013e610ac1565b606091505b5091509150610ad1868383610adc565b925050509392505050565b606082610af157610aec82610b6b565b610b63565b60008251148015610b19575060008473ffffffffffffffffffffffffffffffffffffffff163b145b15610b5b57836040517f9996b315000000000000000000000000000000000000000000000000000000008152600401610b529190610e12565b60405180910390fd5b819050610b64565b5b9392505050565b600081511115610b7e5780518082602001fd5b6040517f1425ea4200000000000000000000000000000000000000000000000000000000815260040160405180910390fd5b600080fd5b600080fd5b6000819050919050565b610bcd81610bba565b8114610bd857600080fd5b50565b600081359050610bea81610bc4565b92915050565b600080fd5b600080fd5b600080fd5b60008083601f840112610c1557610c14610bf0565b5b8235905067ffffffffffffffff811115610c3257610c31610bf5565b5b602083019150836020820283011115610c4e57610c4d610bfa565b5b9250929050565b600080600060408486031215610c6e57610c6d610bb0565b5b6000610c7c86828701610bdb565b935050602084013567ffffffffffffffff811115610c9d57610c9c610bb5565b5b610ca986828701610bff565b92509250509250925092565b600073ffffffffffffffffffffffffffffffffffffffff82169050919050565b6000610ce082610cb5565b9050919050565b610cf081610cd5565b8114610cfb57600080fd5b50565b600081359050610d0d81610ce7565b92915050565b600060208284031215610d2957610d28610bb0565b5b6000610d3784828501610cfe565b91505092915050565b6000819050919050565b610d5381610d40565b82525050565b6000602082019050610d6e6000830184610d4a565b92915050565b610d7d81610d40565b8114610d8857600080fd5b50565b600081359050610d9a81610d74565b92915050565b600060208284031215610db657610db5610bb0565b5b6000610dc484828501610d8b565b91505092915050565b60008115159050919050565b610de281610dcd565b82525050565b6000602082019050610dfd6000830184610dd9565b92915050565b610e0c81610cd5565b82525050565b6000602082019050610e276000830184610e03565b92915050565b610e3681610bba565b82525050565b6000604082019050610e516000830185610e03565b610e5e6020830184610e2d565b9392505050565b600081519050610e7481610bc4565b92915050565b600060208284031215610e9057610e8f610bb0565b5b6000610e9e84828501610e65565b91505092915050565b7f4e487b7100000000000000000000000000000000000000000000000000000000600052603260045260246000fd5b7f4e487b7100000000000000000000000000000000000000000000000000000000600052601160045260246000fd5b6000610f1082610bba565b91507fffffffffffffffffffffffffffffffffffffffffffffffffffffffffffffffff8203610f4257610f41610ed6565b5b600182019050919050565b610f5681610dcd565b8114610f6157600080fd5b50565b600081519050610f7381610f4d565b92915050565b600060208284031215610f8f57610f8e610bb0565b5b6000610f9d84828501610f64565b91505092915050565b600081519050919050565b600081905092915050565b60005b83811015610fda578082015181840152602081019050610fbf565b60008484015250505050565b6000610ff182610fa6565b610ffb8185610fb1565b935061100b818560208601610fbc565b80840191505092915050565b60006110238284610fe6565b91508190509291505056fea26469706673582212204abdf0630032dff0f6cf29fa8572d45719116ee76bbed15de2c749dfc144094264736f6c63430008140033","linkReferences":{}},"methodIdentifiers":{"claimKAKU(uint256,bytes32[])":"1169ba84","isClaimed(address)":"8cc08025","merkleRoot()":"2eb4a7ab","owner()":"8da5cb5b","renounceOwnership()":"715018a6","setToken(address)":"144fa6d7","token()":"fc0c546a","transferOwnership(address)":"f2fde38b","updateMerkleRoot(bytes32)":"4783f0ef","withdrawTokens()":"8d8f2adb"},"id":47}